{
  "_format": "hh-sol-artifact-1",
  "contractName": "Nitanshu",
  "sourceName": "contracts/Nitanshu.sol",
  "abi": [
    {
      "inputs": [],
      "stateMutability": "nonpayable",
      "type": "constructor"
    },
    {
      "anonymous": false,
      "inputs": [
        {
          "indexed": true,
          "internalType": "address",
          "name": "owner",
          "type": "address"
        },
        {
          "indexed": true,
          "internalType": "address",
          "name": "spender",
          "type": "address"
        },
        {
          "indexed": false,
          "internalType": "uint256",
          "name": "value",
          "type": "uint256"
        }
      ],
      "name": "Approval",
      "type": "event"
    },
    {
      "anonymous": false,
      "inputs": [
        {
          "indexed": true,
          "internalType": "address",
          "name": "from",
          "type": "address"
        },
        {
          "indexed": true,
          "internalType": "address",
          "name": "to",
          "type": "address"
        },
        {
          "indexed": false,
          "internalType": "uint256",
          "name": "value",
          "type": "uint256"
        }
      ],
      "name": "Transfer",
      "type": "event"
    },
    {
      "inputs": [
        {
          "internalType": "address",
          "name": "owner",
          "type": "address"
        },
        {
          "internalType": "address",
          "name": "spender",
          "type": "address"
        }
      ],
      "name": "allowance",
      "outputs": [
        {
          "internalType": "uint256",
          "name": "",
          "type": "uint256"
        }
      ],
      "stateMutability": "view",
      "type": "function"
    },
    {
      "inputs": [
        {
          "internalType": "address",
          "name": "spender",
          "type": "address"
        },
        {
          "internalType": "uint256",
          "name": "amount",
          "type": "uint256"
        }
      ],
      "name": "approve",
      "outputs": [
        {
          "internalType": "bool",
          "name": "",
          "type": "bool"
        }
      ],
      "stateMutability": "nonpayable",
      "type": "function"
    },
    {
      "inputs": [
        {
          "internalType": "address",
          "name": "account",
          "type": "address"
        }
      ],
      "name": "balanceOf",
      "outputs": [
        {
          "internalType": "uint256",
          "name": "",
          "type": "uint256"
        }
      ],
      "stateMutability": "view",
      "type": "function"
    },
    {
      "inputs": [
        {
          "internalType": "uint256",
          "name": "_modulus",
          "type": "uint256"
        }
      ],
      "name": "checkMyLuck",
      "outputs": [],
      "stateMutability": "nonpayable",
      "type": "function"
    },
    {
      "inputs": [],
      "name": "decimals",
      "outputs": [
        {
          "internalType": "uint8",
          "name": "",
          "type": "uint8"
        }
      ],
      "stateMutability": "view",
      "type": "function"
    },
    {
      "inputs": [
        {
          "internalType": "address",
          "name": "spender",
          "type": "address"
        },
        {
          "internalType": "uint256",
          "name": "subtractedValue",
          "type": "uint256"
        }
      ],
      "name": "decreaseAllowance",
      "outputs": [
        {
          "internalType": "bool",
          "name": "",
          "type": "bool"
        }
      ],
      "stateMutability": "nonpayable",
      "type": "function"
    },
    {
      "inputs": [
        {
          "internalType": "address",
          "name": "spender",
          "type": "address"
        },
        {
          "internalType": "uint256",
          "name": "addedValue",
          "type": "uint256"
        }
      ],
      "name": "increaseAllowance",
      "outputs": [
        {
          "internalType": "bool",
          "name": "",
          "type": "bool"
        }
      ],
      "stateMutability": "nonpayable",
      "type": "function"
    },
    {
      "inputs": [],
      "name": "name",
      "outputs": [
        {
          "internalType": "string",
          "name": "",
          "type": "string"
        }
      ],
      "stateMutability": "view",
      "type": "function"
    },
    {
      "inputs": [],
      "name": "symbol",
      "outputs": [
        {
          "internalType": "string",
          "name": "",
          "type": "string"
        }
      ],
      "stateMutability": "view",
      "type": "function"
    },
    {
      "inputs": [],
      "name": "totalSupply",
      "outputs": [
        {
          "internalType": "uint256",
          "name": "",
          "type": "uint256"
        }
      ],
      "stateMutability": "view",
      "type": "function"
    },
    {
      "inputs": [
        {
          "internalType": "address",
          "name": "to",
          "type": "address"
        },
        {
          "internalType": "uint256",
          "name": "amount",
          "type": "uint256"
        }
      ],
      "name": "transfer",
      "outputs": [
        {
          "internalType": "bool",
          "name": "",
          "type": "bool"
        }
      ],
      "stateMutability": "nonpayable",
      "type": "function"
    },
    {
      "inputs": [
        {
          "internalType": "address",
          "name": "from",
          "type": "address"
        },
        {
          "internalType": "address",
          "name": "to",
          "type": "address"
        },
        {
          "internalType": "uint256",
          "name": "amount",
          "type": "uint256"
        }
      ],
      "name": "transferFrom",
      "outputs": [
        {
          "internalType": "bool",
          "name": "",
          "type": "bool"
        }
      ],
      "stateMutability": "nonpayable",
      "type": "function"
    },
    {
      "stateMutability": "payable",
      "type": "receive"
    }
  ],
  "bytecode": "0x60806040526b204fce5e3e2502611000000060055560006006553480156200002657600080fd5b506040518060400160405280600881526020017f4e4954414e5348550000000000000000000000000000000000000000000000008152506040518060400160405280600381526020017f4e495400000000000000000000000000000000000000000000000000000000008152508160039080519060200190620000ab929190620000cd565b508060049080519060200190620000c4929190620000cd565b505050620001e2565b828054620000db906200017d565b90600052602060002090601f016020900481019282620000ff57600085556200014b565b82601f106200011a57805160ff19168380011785556200014b565b828001600101855582156200014b579182015b828111156200014a5782518255916020019190600101906200012d565b5b5090506200015a91906200015e565b5090565b5b80821115620001795760008160009055506001016200015f565b5090565b600060028204905060018216806200019657607f821691505b60208210811415620001ad57620001ac620001b3565b5b50919050565b7f4e487b7100000000000000000000000000000000000000000000000000000000600052602260045260246000fd5b611b3f80620001f26000396000f3fe6080604052600436106100ab5760003560e01c806370a082311161006457806370a08231146101ef57806395d89b411461022c578063a457c2d714610257578063a9059cbb14610294578063b4d332c4146102d1578063dd62ed3e146102fa576100b2565b806306fdde03146100b7578063095ea7b3146100e257806318160ddd1461011f57806323b872dd1461014a578063313ce5671461018757806339509351146101b2576100b2565b366100b257005b600080fd5b3480156100c357600080fd5b506100cc610337565b6040516100d991906112a9565b60405180910390f35b3480156100ee57600080fd5b5061010960048036038101906101049190610fb4565b6103c9565b604051610116919061128e565b60405180910390f35b34801561012b57600080fd5b506101346103ec565b604051610141919061144b565b60405180910390f35b34801561015657600080fd5b50610171600480360381019061016c9190610f65565b6103f6565b60405161017e919061128e565b60405180910390f35b34801561019357600080fd5b5061019c610425565b6040516101a99190611466565b60405180910390f35b3480156101be57600080fd5b506101d960048036038101906101d49190610fb4565b61042e565b6040516101e6919061128e565b60405180910390f35b3480156101fb57600080fd5b5061021660048036038101906102119190610f00565b610465565b604051610223919061144b565b60405180910390f35b34801561023857600080fd5b506102416104ad565b60405161024e91906112a9565b60405180910390f35b34801561026357600080fd5b5061027e60048036038101906102799190610fb4565b61053f565b60405161028b919061128e565b60405180910390f35b3480156102a057600080fd5b506102bb60048036038101906102b69190610fb4565b6105b6565b6040516102c8919061128e565b60405180910390f35b3480156102dd57600080fd5b506102f860048036038101906102f39190610ff0565b6105d9565b005b34801561030657600080fd5b50610321600480360381019061031c9190610f29565b610805565b60405161032e919061144b565b60405180910390f35b6060600380546103469061163a565b80601f01602080910402602001604051908101604052809291908181526020018280546103729061163a565b80156103bf5780601f10610394576101008083540402835291602001916103bf565b820191906000526020600020905b8154815290600101906020018083116103a257829003601f168201915b5050505050905090565b6000806103d461088c565b90506103e1818585610894565b600191505092915050565b6000600254905090565b60008061040161088c565b905061040e858285610a5f565b610419858585610aeb565b60019150509392505050565b60006012905090565b60008061043961088c565b905061045a81858561044b8589610805565b610455919061149d565b610894565b600191505092915050565b60008060008373ffffffffffffffffffffffffffffffffffffffff1673ffffffffffffffffffffffffffffffffffffffff168152602001908152602001600020549050919050565b6060600480546104bc9061163a565b80601f01602080910402602001604051908101604052809291908181526020018280546104e89061163a565b80156105355780601f1061050a57610100808354040283529160200191610535565b820191906000526020600020905b81548152906001019060200180831161051857829003601f168201915b5050505050905090565b60008061054a61088c565b905060006105588286610805565b90508381101561059d576040517f08c379a00000000000000000000000000000000000000000000000000000000081526004016105949061140b565b60405180910390fd5b6105aa8286868403610894565b60019250505092915050565b6000806105c161088c565b90506105ce818585610aeb565b600191505092915050565b6000600760003373ffffffffffffffffffffffffffffffffffffffff1673ffffffffffffffffffffffffffffffffffffffff168152602001908152602001600020541461065b576040517f08c379a0000000000000000000000000000000000000000000000000000000008152600401610652906113cb565b60405180910390fd5b6005548111156106a0576040517f08c379a00000000000000000000000000000000000000000000000000000000081526004016106979061136b565b60405180910390fd5b60008142336006546040516020016106ba93929190611251565b6040516020818303038152906040528051906020012060001c6106dd91906116e3565b9050600660008154809291906106f29061166c565b919050555060028261070491906114f3565b8110610745576040517f08c379a000000000000000000000000000000000000000000000000000000000815260040161073c906112eb565b60405180910390fd5b670de0b6b3a7640000816107599190611524565b9050600554811061079f576040517f08c379a0000000000000000000000000000000000000000000000000000000008152600401610796906113ab565b60405180910390fd5b80600760003373ffffffffffffffffffffffffffffffffffffffff1673ffffffffffffffffffffffffffffffffffffffff16815260200190815260200160002081905550806005546107f1919061157e565b6005819055506108013382610d6c565b5050565b6000600160008473ffffffffffffffffffffffffffffffffffffffff1673ffffffffffffffffffffffffffffffffffffffff16815260200190815260200160002060008373ffffffffffffffffffffffffffffffffffffffff1673ffffffffffffffffffffffffffffffffffffffff16815260200190815260200160002054905092915050565b600033905090565b600073ffffffffffffffffffffffffffffffffffffffff168373ffffffffffffffffffffffffffffffffffffffff161415610904576040517f08c379a00000000000000000000000000000000000000000000000000000000081526004016108fb906113eb565b60405180910390fd5b600073ffffffffffffffffffffffffffffffffffffffff168273ffffffffffffffffffffffffffffffffffffffff161415610974576040517f08c379a000000000000000000000000000000000000000000000000000000000815260040161096b9061130b565b60405180910390fd5b80600160008573ffffffffffffffffffffffffffffffffffffffff1673ffffffffffffffffffffffffffffffffffffffff16815260200190815260200160002060008473ffffffffffffffffffffffffffffffffffffffff1673ffffffffffffffffffffffffffffffffffffffff168152602001908152602001600020819055508173ffffffffffffffffffffffffffffffffffffffff168373ffffffffffffffffffffffffffffffffffffffff167f8c5be1e5ebec7d5bd14f71427d1e84f3dd0314c0f7b2291e5b200ac8c7c3b92583604051610a52919061144b565b60405180910390a3505050565b6000610a6b8484610805565b90507fffffffffffffffffffffffffffffffffffffffffffffffffffffffffffffffff8114610ae55781811015610ad7576040517f08c379a0000000000000000000000000000000000000000000000000000000008152600401610ace9061132b565b60405180910390fd5b610ae48484848403610894565b5b50505050565b600073ffffffffffffffffffffffffffffffffffffffff168373ffffffffffffffffffffffffffffffffffffffff161415610b5b576040517f08c379a0000000000000000000000000000000000000000000000000000000008152600401610b529061138b565b60405180910390fd5b600073ffffffffffffffffffffffffffffffffffffffff168273ffffffffffffffffffffffffffffffffffffffff161415610bcb576040517f08c379a0000000000000000000000000000000000000000000000000000000008152600401610bc2906112cb565b60405180910390fd5b610bd6838383610ecc565b60008060008573ffffffffffffffffffffffffffffffffffffffff1673ffffffffffffffffffffffffffffffffffffffff16815260200190815260200160002054905081811015610c5c576040517f08c379a0000000000000000000000000000000000000000000000000000000008152600401610c539061134b565b60405180910390fd5b8181036000808673ffffffffffffffffffffffffffffffffffffffff1673ffffffffffffffffffffffffffffffffffffffff16815260200190815260200160002081905550816000808573ffffffffffffffffffffffffffffffffffffffff1673ffffffffffffffffffffffffffffffffffffffff1681526020019081526020016000206000828254610cef919061149d565b925050819055508273ffffffffffffffffffffffffffffffffffffffff168473ffffffffffffffffffffffffffffffffffffffff167fddf252ad1be2c89b69c2b068fc378daa952ba7f163c4a11628f55a4df523b3ef84604051610d53919061144b565b60405180910390a3610d66848484610ed1565b50505050565b600073ffffffffffffffffffffffffffffffffffffffff168273ffffffffffffffffffffffffffffffffffffffff161415610ddc576040517f08c379a0000000000000000000000000000000000000000000000000000000008152600401610dd39061142b565b60405180910390fd5b610de860008383610ecc565b8060026000828254610dfa919061149d565b92505081905550806000808473ffffffffffffffffffffffffffffffffffffffff1673ffffffffffffffffffffffffffffffffffffffff1681526020019081526020016000206000828254610e4f919061149d565b925050819055508173ffffffffffffffffffffffffffffffffffffffff16600073ffffffffffffffffffffffffffffffffffffffff167fddf252ad1be2c89b69c2b068fc378daa952ba7f163c4a11628f55a4df523b3ef83604051610eb4919061144b565b60405180910390a3610ec860008383610ed1565b5050565b505050565b505050565b600081359050610ee581611adb565b92915050565b600081359050610efa81611af2565b92915050565b600060208284031215610f1257600080fd5b6000610f2084828501610ed6565b91505092915050565b60008060408385031215610f3c57600080fd5b6000610f4a85828601610ed6565b9250506020610f5b85828601610ed6565b9150509250929050565b600080600060608486031215610f7a57600080fd5b6000610f8886828701610ed6565b9350506020610f9986828701610ed6565b9250506040610faa86828701610eeb565b9150509250925092565b60008060408385031215610fc757600080fd5b6000610fd585828601610ed6565b9250506020610fe685828601610eeb565b9150509250929050565b60006020828403121561100257600080fd5b600061101084828501610eeb565b91505092915050565b61102a611025826115b2565b6116b5565b82525050565b611039816115c4565b82525050565b600061104a82611481565b611054818561148c565b9350611064818560208601611607565b61106d816117a1565b840191505092915050565b600061108560238361148c565b9150611090826117bf565b604082019050919050565b60006110a860348361148c565b91506110b38261180e565b604082019050919050565b60006110cb60228361148c565b91506110d68261185d565b604082019050919050565b60006110ee601d8361148c565b91506110f9826118ac565b602082019050919050565b600061111160268361148c565b915061111c826118d5565b604082019050919050565b600061113460198361148c565b915061113f82611924565b602082019050919050565b600061115760258361148c565b91506111628261194d565b604082019050919050565b600061117a60318361148c565b91506111858261199c565b604082019050919050565b600061119d60188361148c565b91506111a8826119eb565b602082019050919050565b60006111c060248361148c565b91506111cb82611a14565b604082019050919050565b60006111e360258361148c565b91506111ee82611a63565b604082019050919050565b6000611206601f8361148c565b915061121182611ab2565b602082019050919050565b611225816115f0565b82525050565b61123c611237826115f0565b6116d9565b82525050565b61124b816115fa565b82525050565b600061125d828661122b565b60208201915061126d8285611019565b60148201915061127d828461122b565b602082019150819050949350505050565b60006020820190506112a36000830184611030565b92915050565b600060208201905081810360008301526112c3818461103f565b905092915050565b600060208201905081810360008301526112e481611078565b9050919050565b600060208201905081810360008301526113048161109b565b9050919050565b60006020820190508181036000830152611324816110be565b9050919050565b60006020820190508181036000830152611344816110e1565b9050919050565b6000602082019050818103600083015261136481611104565b9050919050565b6000602082019050818103600083015261138481611127565b9050919050565b600060208201905081810360008301526113a48161114a565b9050919050565b600060208201905081810360008301526113c48161116d565b9050919050565b600060208201905081810360008301526113e481611190565b9050919050565b60006020820190508181036000830152611404816111b3565b9050919050565b60006020820190508181036000830152611424816111d6565b9050919050565b60006020820190508181036000830152611444816111f9565b9050919050565b6000602082019050611460600083018461121c565b92915050565b600060208201905061147b6000830184611242565b92915050565b600081519050919050565b600082825260208201905092915050565b60006114a8826115f0565b91506114b3836115f0565b9250827fffffffffffffffffffffffffffffffffffffffffffffffffffffffffffffffff038211156114e8576114e7611714565b5b828201905092915050565b60006114fe826115f0565b9150611509836115f0565b92508261151957611518611743565b5b828204905092915050565b600061152f826115f0565b915061153a836115f0565b9250817fffffffffffffffffffffffffffffffffffffffffffffffffffffffffffffffff048311821515161561157357611572611714565b5b828202905092915050565b6000611589826115f0565b9150611594836115f0565b9250828210156115a7576115a6611714565b5b828203905092915050565b60006115bd826115d0565b9050919050565b60008115159050919050565b600073ffffffffffffffffffffffffffffffffffffffff82169050919050565b6000819050919050565b600060ff82169050919050565b60005b8381101561162557808201518184015260208101905061160a565b83811115611634576000848401525b50505050565b6000600282049050600182168061165257607f821691505b6020821081141561166657611665611772565b5b50919050565b6000611677826115f0565b91507fffffffffffffffffffffffffffffffffffffffffffffffffffffffffffffffff8214156116aa576116a9611714565b5b600182019050919050565b60006116c0826116c7565b9050919050565b60006116d2826117b2565b9050919050565b6000819050919050565b60006116ee826115f0565b91506116f9836115f0565b92508261170957611708611743565b5b828206905092915050565b7f4e487b7100000000000000000000000000000000000000000000000000000000600052601160045260246000fd5b7f4e487b7100000000000000000000000000000000000000000000000000000000600052601260045260246000fd5b7f4e487b7100000000000000000000000000000000000000000000000000000000600052602260045260246000fd5b6000601f19601f8301169050919050565b60008160601b9050919050565b7f45524332303a207472616e7366657220746f20746865207a65726f206164647260008201527f6573730000000000000000000000000000000000000000000000000000000000602082015250565b7f486d6d206920616d206e6f7420696e746572657374656420696e20726577617260008201527f64696e6720746f6b656e20746f20796f75202121000000000000000000000000602082015250565b7f45524332303a20617070726f766520746f20746865207a65726f20616464726560008201527f7373000000000000000000000000000000000000000000000000000000000000602082015250565b7f45524332303a20696e73756666696369656e7420616c6c6f77616e6365000000600082015250565b7f45524332303a207472616e7366657220616d6f756e742065786365656473206260008201527f616c616e63650000000000000000000000000000000000000000000000000000602082015250565b7f54686174277320746f206d75636820746f2061736b20666f7200000000000000600082015250565b7f45524332303a207472616e736665722066726f6d20746865207a65726f20616460008201527f6472657373000000000000000000000000000000000000000000000000000000602082015250565b7f596f7520686164206120626164206c75636b20616e6420676f6f64206c75636b60008201527f206174207468652073616d652074696d65000000000000000000000000000000602082015250565b7f596f75206861766520726563656976656420746f6b656e730000000000000000600082015250565b7f45524332303a20617070726f76652066726f6d20746865207a65726f2061646460008201527f7265737300000000000000000000000000000000000000000000000000000000602082015250565b7f45524332303a2064656372656173656420616c6c6f77616e63652062656c6f7760008201527f207a65726f000000000000000000000000000000000000000000000000000000602082015250565b7f45524332303a206d696e7420746f20746865207a65726f206164647265737300600082015250565b611ae4816115b2565b8114611aef57600080fd5b50565b611afb816115f0565b8114611b0657600080fd5b5056fea264697066735822122012ce9fa402452d08361a285d53a4c90543f36c111a933af92a113117b169cc5d64736f6c63430008010033",
  "linkReferences": {},
  "deployedLinkReferences": {}
}